:020000040800F2
:100000004005002001010008772500087925000837
:100010007D250008812500088525000800000000D6
:100020000000000000000000000000008B25000818
:1000300089250008000000008D25000839250008EA
:100040001B0100081B0100081B0100081B01000820
:100050001B0100081B010008CD210008272400080F
:10006000972400081B0100081B0100081B01000861
:100070001B0100081B0100081B0100081B010008F0
:100080001B0100081B0100081B0100081B010008E0
:100090001B0100081B0100081B010008B323000816
:1000A0001B0100081B0100081B0100081B010008C0
:1000B0001B0100081B0100081B0100081B010008B0
:1000C0001B0100081B0100081B0100081B010008A0
:1000D0001B0100081B010008F12400081B01000897
:1000E0001B0100081B0100081B010008DFF80CD0F1
:1000F00002F094FF00480047172100084005002047
:100100000648804706480047FEE7FEE7FEE7FEE7B1
:10011000FEE7FEE7FEE7FEE7FEE7FEE70302000874
:10012000ED0000080CB50020019000906C480068BC
:1001300040F480306A49086000BF6948006800F4F4
:10014000003000900198401C0190009818B9019867
:10015000B0F5A06FF1D16248006800F4003010B132
:100160000120009001E0002000900098012843D178
:100170005C48006840F010005A4908600846006872
:1001800020F0030008600846006840F002000860A4
:1001900053484068524948600846406848600846ED
:1001A000406840F4806048600846406820F47C1055
:1001B00048600846406840F4E81048600846006817
:1001C00040F08070086000BF4548006800F0007093
:1001D0000028F9D04248406820F0030040494860B8
:1001E0000846406840F00200486000BF3C48406854
:1001F00000F00C000828F9D10CBD10B5FFF792FFF4
:1002000010BD10B53648006840F001003449086060
:10021000084640683449084031494860084600684B
:10022000324908402E4908600846006820F48020C2
:1002300008600846406820F4FE0048604FF41F0044
:100240008860FFF7DAFF4FF000602949086010BDB1
:1002500010B5002100200022214B5B6803F00C0147
:1002600021B1042906D0082928D107E0214B224CCE
:10027000236027E01F4B204C236023E0184B5B6872
:1002800003F47010164B5B6803F48032022303EB17
:10029000904022B9194B4343174C23600DE0104B9B
:1002A0005B6803F4003323B1144B4343124C2360C7
:1002B00003E0104B4343104C236003E00D4B0E4C06
:1002C000236000BF00BF064B5B68C3F303130C4CF5
:1002D000E15C094B1B68CB40074C236010BD00005C
:1002E00000100240002002400000FFF8FFFFF6FE71
:1002F00008ED00E000127A000000002000093D0037
:100300000400002010B50446CC48844208D10121E5
:10031000042000F02DFB0021042000F029FB46E022
:10032000C748844208D10121082000F021FB0021A8
:10033000082000F01DFB3AE0C248844208D10121A8
:10034000102000F015FB0021102000F011FB2EE022
:10035000BD48844208D10121202000F009FB002182
:10036000202000F005FB22E0B848844208D101219A
:10037000402000F0FDFA0021402000F0F9FA16E0DC
:10038000B348844208D10121802000F0F1FA002115
:10039000802000F0EDFA0AE0AE48844207D1012146
:1003A000801500F0E5FA0021A01500F0E1FA10BD7B
:1003B00010B50121084600F0DBFA0021012000F011
:1003C000D7FA10BD2DE9F041024600250026002095
:1003D00000230024002791F803C00CF00F0591F8CA
:1003E00003C00CF0100CBCF1000F03D091F802C058
:1003F0004CEA050591F800C0BCF1000F31D014683B
:1004000000202BE04FF0010C0CFA00F3B1F800C013
:100410000CEA03069E4220D183004FF00F0C0CFA29
:1004200003F7BC4305FA03FC4CEA040491F803C04B
:10043000BCF1280F06D14FF0010C0CFA00FCC2F8F9
:1004400014C00AE091F803C0BCF1480F05D14FF089
:10045000010C0CFA00FCC2F810C0401C0828D1D3D3
:100460001460B1F800C0BCF1FF0F34DD5468002007
:100470002EE000F1080C4FF0010808FA0CF3B1F877
:1004800000C00CEA03069E4221D183004FF00F0CFE
:100490000CFA03F7BC4305FA03FC4CEA040491F898
:1004A00003C0BCF1280F05D100F1080C08FA0CF8C4
:1004B000C2F8148091F803C0BCF1480F07D100F1D5
:1004C000080C4FF0010808FA0CF8C2F81080401C24
:1004D0000828CED35460BDE8F0814FF6FF7101804B
:1004E000022181700421C170704702460020936888
:1004F0000B400BB1012000E00020704701468868E6
:1005000080B2704702460020D3680B400BB1012037
:1005100000E0002070470146C86880B27047016162
:100520007047416170470AB1016100E04161704765
:10053000C16070474FF480320A43826181618261F9
:1005400082698269704702460020434B18684FF663
:100550008073184040EA021008433F4B1860704710
:100560003E49C8617047F0B50A46002300240021C7
:10057000002500F00046B6F1004F02D1364EF16979
:1005800001E0354E7168C0F3034583B200F44016B4
:10059000B6F5401F08D121F070612F4E766826F025
:1005A00070662D4F7E6012E000F48016B6F5801F55
:1005B00006D1032606FA05F4A14341F0706106E076
:1005C000460D360103FA06F6B14341F0706122B1DF
:1005D000460D360103FA06F6314300F00046B6F147
:1005E000004F02D11C4EF16101E01B4E7160F0BD65
:1005F00030B500228B071C0F0F2303FA04F2164BB1
:1006000008338C1053F824309343134C08348D1066
:1006100044F8253023468C1053F824308C07240FDF
:1006200000FA04F423430C4C08348D1044F82530B0
:1006300030BD0A49DC310860704700000008014005
:10064000000C01400010014000140140001801405E
:10065000001C014000200140000001400000204239
:10066000DF48006840F00100DD4908600846406846
:10067000DC490840DA49486008460068DA49084021
:10068000D74908600846006820F4802008600846C2
:10069000406820F4FE0048604FF41F0088607047F7
:1006A000CF49096821F48031CD4A116011460968AB
:1006B00021F480211160B0F5803F03D0B0F5802F88
:1006C0000ED106E0C649096841F48031C44A116080
:1006D00007E0C349096841F4A021C14A116000E064
:1006E00000BF00BF704710B5014600220023002064
:1006F0004A11012A02D1BA4C236806E0022A02D12B
:10070000B74C236A01E0B64C636A01F01F02012472
:1007100094401C400CB1012000E0002010BD38B511
:10072000002000900024002500BF3120FFF7DBFFF0
:1007300005460098401C00900098B0F5A06F01D0CD
:10074000002DF2D03120FFF7CEFF08B1012400E0E8
:100750000024204638BD01460020A14A106820F040
:10076000F80040EAC10010607047A0490860704777
:10077000024600209A4B586820F47C1042EA01039C
:100780001843974B58607047984908667047014670
:100790000020934A506820F00300084350607047DF
:1007A0008F48406800F00C007047014600208C4ADA
:1007B000506820F0F0000843506070470146002068
:1007C000874A506820F4E060084350607047014653
:1007D0000020834A506820F4605040EAC100506015
:1007E000704729B17E4A527A02437D4B5A7204E027
:1007F0007B4A527A82437A4B5A7270477B49D8318E
:100800000860704701460020754A506820F4404057
:100810000843506070470021714A20321170704ABD
:1008200082F82010012802D004280AD104E0012116
:100830006B4A2032117005E00521694A203211709F
:1008400000E000BF00BF7047694908607047644915
:10085000096A0143624A1162704765494439086078
:10086000704730B500210022002400235C4D6D68E4
:1008700005F00C0121B1042905D0082923D105E098
:100880005C4D056022E05B4D05601FE0544D6D68D6
:1008900005F47012524D6D6805F48034022505EBA5
:1008A00092421CB9544D554305600BE04C4D6D68A8
:1008B00005F400351DB1504D5543056002E04D4D26
:1008C0005543056002E04B4D056000BF00BF444D3D
:1008D0006D6805F0F0010909484D6B5C0568DD4065
:1008E00045603F4D6D6805F4E061090A434D6B5C5E
:1008F0004568DD4085603A4D6D6805F46051C90A70
:100900003E4D6B5C4568DD40C560354D6D6805F456
:100910004041890B3A4D6B5CC568B5FBF3F5056149
:1009200030BD29B12E4A526902432D4B5A6104E071
:100930002B4A526982432A4B5A61704729B1284A8F
:1009400092690243264B9A6104E0254A92698243E8
:10095000234B9A61704729B1214AD2690243204B47
:10096000DA6104E01E4AD26982431D4BDA617047A6
:1009700029B11B4AD2680243194BDA6004E0184AD5
:10098000D2688243164BDA60704729B1144A126963
:100990000243134B1A6104E0114A12698243104B5F
:1009A0001A61704712494039086070470F49C8649E
:1009B00070470B49C87170470948406A40F0807021
:1009C00007494862704701460020054A92680A407C
:1009D0000AB1012000E00020704701498872704789
:1009E000001002400000FFF8FFFFF6FE0000424248
:1009F0008004424200127A0000093D0014000020E9
:100A00002400002031490143314A1160704770B51C
:100A1000002100230F22C47804B32D4C246804F471
:100A2000E064C4F5E064210AC1F10403CA404478DB
:100A300004FA03F18478144021430901254C067817
:100A4000A155047804F01F050124AC4005786D1110
:100A5000AD0005F1E025C5F8004109E0047804F097
:100A60001F050124AC401C4D0678761145F8264040
:100A700070BD1A4A0A400243154B1B1F1A6070478B
:100A800039B1134A121D12680243114B1B1D1A6023
:100A900006E00F4A121D126882430D4B1B1D1A609F
:100AA0007047042808D14FF0E021096941F00401A2
:100AB0004FF0E022116107E04FF0E021096921F0D9
:100AC00004014FF0E0221161704700000000FA05B8
:100AD0000CED00E000E400E080E100E080FFFF1F9B
:100AE00010B50446FA48844208D101214015FFF7A9
:100AF0003FFF00216015FFF73BFF17E0F5488442F8
:100B000008D101210015FFF733FF00212015FFF761
:100B10002FFF0BE0F048844208D10121C803FFF702
:100B200027FF00214FF40040FFF722FF10BD30B532
:100B30000246002000235068E84C20400D790C68E4
:100B400044EA0524204350609068E54C2040D1E9F8
:100B500002542C434D7944EA450420439060D06A06
:100B600020F470000C7C641EE4B2234340EA03507E
:100B7000D06230BD00210160017141718160C160AE
:100B800001210174704721B1826842F00102826044
:100B900003E0826822F001028260704721B182681E
:100BA00042F48072826003E0826822F48072826084
:100BB000704710B50023CBB21AB144681C4344609F
:100BC00002E044689C43446010BD816841F0080124
:100BD00081607047014600208A6802F008020AB16D
:100BE000012000E000207047816841F0040181602D
:100BF0007047014600208A6802F004020AB1012011
:100C000000E00020704721B1826842F4A0028260B7
:100C100003E0826822F4A00282607047014600204F
:100C20008A6802F480020AB1012000E000207047C7
:100C300010B50A4600210023416821F46041531E8B
:100C400041EA4331416010BD21B1426842F4006283
:100C5000426003E0426822F4006242607047F0B5EF
:100C600004460D4600200021092D11DDE068A5F1A4
:100C70000A0606EB4607072606FA07F18843A5F1A0
:100C80000A0606EB460603FA06F10843E0600CE0AC
:100C9000206905EB4507072606FA07F1884305EBAF
:100CA000450603FA06F108432061072A0FDA606B54
:100CB000561E06EB86071F2606FA07F18843561EC6
:100CC00006EB860605FA06F10843606322E00D2A6A
:100CD0000FDA206BD61F06EB86071F2606FA07F1F0
:100CE0008843D61F06EB860605FA06F10843206303
:100CF00010E0E06AA2F10D0606EB86071F2606FA51
:100D000007F18843A2F10D0606EB860605FA06F107
:100D10000843E062F0BD21B1826842F48012826033
:100D200003E0826822F48012826070470146C86C3A
:100D300080B2704766484C300068704721B1426805
:100D400042F48062426003E0426822F480624260C2
:100D5000704721B1426842F48052426003E0426829
:100D600022F48052426070470A460021816821F4D3
:100D7000E04111438160704721B1826842F4004232
:100D8000826003E0826822F400428260704721B1F1
:100D9000826842F40212826003E0826822F4021246
:100DA00082607047014600208A6802F400120AB18E
:100DB000012000E000207047F0B5044615460020F1
:100DC00000220026092911DDE068A1F10A0707EBDE
:100DD000470C072707FA0CF29043A1F10A0707EB2B
:100DE000470703FA07F21043E0600CE0206901EBCB
:100DF000410C072707FA0CF2904301EB410703FA75
:100E000007F210432061A06BC0F30156EF1C06F1FE
:100E1000010CA7EB0C0707EB870C1F2707FA0CF256
:100E20009043EF1C06F1010CA7EB0C0707EB8707BB
:100E300001FA07F21043A063F0BD10B50A46002185
:100E40000023816B21F44011531E41EA0351816359
:100E500010BD08B5002300930090009B0B44009345
:100E6000009B1A6008BD08B5024600200090009261
:100E700001F12800009B184400900098006880B29F
:100E800008BD0A4600214168164B194011434160D4
:100E900070474162826270470A460021416821F032
:100EA0001F0111434160704740B109490831096889
:100EB00041F40001064A0832116007E00449083194
:100EC000096821F40001024A0832116070470000ED
:100ED0000024014000280140003C0140FFFEF0FFDB
:100EE000FDF7F1FFFFFD3FFF0246002013680B40B6
:100EF0000BB1012000E000207047CA430260704738
:100F000070B502460020002300240B125568CEB2B3
:100F100005EA060415681D4015B10CB1012000E07A
:100F2000002070BD00220A12D34303607047000006
:100F3000002044490860091D0860091D0860091D5A
:100F4000086041483F4914310860704700213D491D
:100F50008279002A3AD00A46126803689A430B46FF
:100F60001A600A1D126803689A430B1D1A60027901
:100F700011440A6803681A430A60324A0832126848
:100F800003689A432F4B08331A601A1D12680368CE
:100F90009A432C4B0C331A604279102A0ED11A1F37
:100FA000126803681A43274B08331A601A1D126827
:100FB00003681A43234B0C331A600DE02149427930
:100FC00011440A6803681A430A6005E00279114473
:100FD0000A6803689A430A60704700210160017142
:100FE0000C21417100218171704716491031096847
:100FF0000143144A10321160704701460020114A23
:10100000143212680A400AB1012000E00020704743
:101010000C49143108607047014600200022094B3A
:101020001B6803EA0102074B14331B680B4013B122
:101030000AB1012000E00020704702491431086025
:101040007047000000040140FFFF0F0010B5044688
:10105000FB48844209D101218803FFF789FC002164
:101060004FF48040FFF784FC32E0F648844209D117
:1010700001214804FFF789FC00214FF40030FFF7FD
:1010800084FC25E0F048844209D101218804FFF75F
:101090007CFC00214FF48020FFF777FC18E0EB4840
:1010A000844209D10121C804FFF76FFC00214FF4ED
:1010B0000020FFF76AFC0BE0E548844208D10121DB
:1010C0000805FFF762FC00214FF48010FFF75DFC7C
:1010D00010BD2DE9F04786B005460E460024A24615
:1010E00000BFA1460027B08900B100BF2F462C8A5F
:1010F0004CF6FF700440F08804432C82AC894EF615
:10110000F3100440B08831890843718908430443CF
:10111000AC81AC8A4FF6FF400440B0890443AC82F6
:1011200001A8FFF79EFBC648874202D1DDF810A058
:1011300001E0DDF80CA0A88900F4004040B10AEB02
:10114000CA0000EB0A1031684900B0FBF1F807E073
:101150000AEBCA0000EB0A1031688900B0FBF1F815
:101160006420B8FBF0F004012009642101FB108920
:10117000A88900F4004040B1322000EBC900B0FB68
:10118000F1F000F00700044308E0322000EB091002
:101190006421B0FBF1F000F00F0004432C8106B095
:1011A000BDE8F0874FF41651016000218180C180B5
:1011B00001810C21418100218181704710B50246D7
:1011C0000020108A4FF2FF0318400B884C882343FD
:1011D0008C882343CC8823431843108210BD002100
:1011E000018041808180C180704721B1828942F4B1
:1011F0000052828104E082894DF6FF731A40828199
:101200007047F0B50346002400260025002040F674
:101210006A17B94200D100BF1846C1F3421401F069
:101220001F06012707FA06F5012C01D10C3004E056
:10123000022C01D1103000E014301AB107682F439E
:10124000076002E00768AF430760F0BD1AB1838A08
:101250000B43838202E0838A8B4383827047028A36
:101260004FF6F0731A400282028A0A4302827047E4
:1012700082894FF2FF731A40828182890A438281F8
:10128000704721B1828942F00202828104E08289A2
:101290004FF6FD731A4082817047028A4FF6DF7362
:1012A0001A400282028A0A430282704721B1028AEE
:1012B00042F48042028204E0028A4BF6FF731A4035
:1012C00002827047C1F30802828070470146888815
:1012D000C0F308007047818941F0010181817047A6
:1012E000028BD2B20283028B42EA01220283704750
:1012F000028B02F47F420283028B0A43028370470F
:1013000021B1828A42F02002828204E0828A4FF672
:10131000DF731A408282704721B1828A42F0100244
:10132000828204E0828A4FF6EF731A40828270470D
:1013300021B1828A42F00802828204E0828A4FF65A
:10134000F7731A408282704721B1828942F40042C9
:10135000828103E08289C2F30E028281704721B14B
:10136000828A42F40062828204E0828A4FF2FF7332
:101370001A4082827047828A4FF6FB731A4082823B
:10138000828A0A438282704721B1828A42F0020235
:10139000828204E0828A4FF6FD731A40828270478F
:1013A00002460020B1F5007F00D100BF13880B403A
:1013B0000BB1012000E00020704701F40072B2F58B
:1013C000007F00D100BFCA430280704770B502465B
:1013D000002400230025002040F66A16B14200D107
:1013E00000BFC1F3421501F01F03012606FA03F303
:1013F000012D02D19689334006E0022D02D1168AD2
:10140000334001E0968A33400C12012606FA04F4B8
:101410001688344013B10CB1012000E0002070BDEB
:1014200010B50022002340F66A14A14200D100BF8B
:101430000A1201249440A3B2DC43048010BD0000D2
:10144000003801400044004000480040004C00408B
:1014500000500040002109E0002201E0531C9AB234
:1014600040F6B8339A42F9DB4B1C99B28142F3DB68
:1014700070474FF40072FA4B1A6052101A60202223
:101480001B1F1A60F74AD06020221B1D1A601B1F09
:101490001A60D2001A60F34AD16020221B1D1A6024
:1014A0001B1F1A60D2001A60704700B5012100208E
:1014B000FFF7DFFF4FF47A70FFF7CCFF0021012028
:1014C000FFF7D7FF41F290711020FFF7D2FF4FF4E2
:1014D0001C516020FFF7CDFF01216120FFF7C9FFFC
:1014E00002214620FFF7C5FF48F210011320FFF745
:1014F000C0FF48F2FE011220FFF7BBFF4FF4A061CE
:101500000220FFF7B6FF41F230010320FFF7B1FFE1
:1015100040F203313020FFF7ACFF40F203313120BD
:10152000FFF7A7FF40F203313220FFF7A2FF4FF48D
:1015300040713320FFF79DFF03213420FFF799FF0F
:1015400040F203313520FFF794FF14213620FFF7D6
:1015500090FF40F203313720FFF78BFF40F2033159
:101560003820FFF786FF40F203313920FFF781FF73
:101570004FF440713A20FFF77CFF03213B20FFF737
:1015800078FF40F203313C20FFF773FF4FF4A05186
:101590003D20FFF76EFF4FF400719220FFF769FFC7
:1015A00040F203319320FFF764FF40F60D019020D5
:1015B000FFF75FFF41F218010320FFF75AFF40F2E7
:1015C00073110720FFF755FF00BD00B543F2080176
:1015D000E320FFF74EFF1221E720FFF74AFF41F219
:1015E0003121EF20FFF745FF00210120FFF741FFE8
:1015F0004FF4E0610220FFF73CFF41F2300103208D
:10160000FFF737FF00210420FFF733FF40F20721E7
:101610000820FFF72EFF00210920FFF72AFF0021F5
:101620000A20FFF726FF00210C20FFF722FF0021F0
:101630000D20FFF71EFF00210F20FFF71AFF0021EA
:101640001020FFF716FF07211120FFF712FF0021DE
:101650001220FFF70EFF00211320FFF70AFF4FF4BF
:101660007A70FFF7F7FE41F290611020FFF701FF5B
:1016700040F227211120FFF7FCFE3220FFF7EAFE9F
:101680001D211220FFF7F5FE3220FFF7E3FE4FF495
:1016900000611320FFF7EDFE14212920FFF7E9FE7A
:1016A0000B212B20FFF7E5FE3220FFF7D3FE0021B0
:1016B0002020FFF7DEFE00212120FFF7DAFE0721C0
:1016C0003020FFF7D6FE40F207713120FFF7D1FE40
:1016D00006213220FFF7CDFE40F204713520FFF7DE
:1016E000C8FE41F604713620FFF7C3FE04213720FF
:1016F000FFF7BFFE00213820FFF7BBFE40F2067166
:101700003920FFF7B6FE40F201713C20FFF7B1FE31
:101710000F213D20FFF7ADFE00215020FFF7A9FE6D
:10172000EF215120FFF7A5FE00215220FFF7A1FE77
:1017300040F23F115320FFF79CFE4FF41C516020F4
:10174000FFF797FE01216120FFF793FE00216A2039
:10175000FFF78FFE00218020FFF78BFE0021812004
:10176000FFF787FE00218220FFF783FE0021832000
:10177000FFF77FFE00218420FFF77BFE00218520FC
:10178000FFF777FE10219020FFF773FE00219220D3
:10179000FFF76FFE03219320FFF76BFE4FF4887174
:1017A0009520FFF766FE00219720FFF762FE0021DB
:1017B0009820FFF75EFE41F218010320FFF759FE63
:1017C00040F273110720FFF754FE00BD08B54FF635
:1017D000FF70ADF8000003208DF8020010208DF896
:1017E000030069461F48FEF7EDFD08BD08B54FF63A
:1017F000FF70ADF8000003208DF8020048208DF83E
:10180000030069461748FEF7DDFD08BD70B50446C4
:101810004FF4007012490860401008602020091F32
:1018200008601048C4602020091D0860091F086076
:10183000C0000860FFF7DAFF4FF4806008490860D5
:101840000848806885B20815091F0860FFF7BEFFC9
:101850004FF400700249091F0860284670BD00005F
:10186000140C01400010014008B501211820FFF7B9
:1018700065F801212020FFF761F84FF4E460ADF82E
:10188000000001208DF8020010208DF80300694649
:10189000FC48FEF797FDFFF799FFFA481030006803
:1018A00040F4C460F7491031086008BD10B5FFF777
:1018B000DBFF0020FFF7AAFFF349088008460088F5
:1018C00048F23021884202D1FFF7EFFD01E0FFF737
:1018D0007CFE0020FFF79AFFEB49088010BD01B5A0
:1018E000BDF80000E949088008BD01B5BDF8000059
:1018F000E749088008BD30B504460D462146202042
:10190000FFF7B7FD29462120FFF7B3FD30BD4FF4A7
:101910000071DC4A143211604910121F116020213D
:101920001160DC49C8602021121D1160121F116076
:10193000C90011604900116070474FF40070D1492F
:1019400014310860401008602020091F0860222020
:10195000D049C8602020CB4914310860091F0860B5
:10196000C00008604000086070472DE9F04306465B
:101970008946174600240025A046B0464946404601
:10198000FFF7B9FF00BF1EE0FFF7D7FF00250FE00C
:1019900037F814000121A940084020B9BC4800884C
:1019A000FFF7B5FF03E0B9480088FFF7B0FF6D1CF3
:1019B000102DEDD308F1010000F0FF084946404624
:1019C000FFF799FF641C182CDED3BDE8F08370B5D7
:1019D00005460E461446A4F12000C4B204EB4400B0
:1019E000AD4901EB001231462846FFF7BEFF70BD3E
:1019F0002DE9F04107460C46A648C0681FFA80F85A
:101A0000002540F23F1609E0227831463846FFF7BC
:101A1000DEFFA6F1100086B2641C6D1C207808B1B0
:101A2000142DF1D39B48C0F80C80BDE8F08110B5AF
:101A300004469AA12046FFF7DBFF10BD30B50546EE
:101A4000002400210846FFF756FFFFF776FF00BF8E
:101A500003E02846FFF75BFF641CB4F5963FF8D31C
:101A600030BDF0B504460D4616461F46B44206DBAF
:101A7000A01B401C81B25020FFF7FBFC03E00021BB
:101A80005020FFF7F6FC21465120FFF7F2FCBD4243
:101A900006DBE81B401C81B25220FFF7EAFC03E0A2
:101AA00000215220FFF7E5FC29465320FFF7E1FC17
:101AB00029462046FFF71FFFF0BD00B54FF4A07385
:101AC000F022591EEF20FFF7CCFF41F2180103204E
:101AD000FFF7CFFC00BD2DE9F041064688461546CC
:101AE0001F46002441463046FFF705FF5FB9FFF768
:101AF00024FF00BF04E065480088FFF708FF641C6E
:101B0000AC42F8D310E000240CE0FFF716FF5F486A
:101B10000088FFF7FCFE701CC6B241463046FFF756
:101B2000EAFE641CAC42F0D3BDE8F081F0B5054696
:101B30000E4617461C460023224631462846FFF72C
:101B4000CAFFE919C8B2002322463146FFF7C3FF96
:101B500001233A4631462846FFF7BDFF301B401CA3
:101B600081B201233A462846FFF7B5FFF0BD2DE9C3
:101B7000F04306460F4690460320A0EB4809002498
:101B800045466EE07A1991B23219D0B2FFF7B3FE32
:101B9000FFF7D3FE3D480088FFF7B9FE7A1B91B2EC
:101BA0003219D0B2FFF7A7FEFFF7C7FE374800880B
:101BB000FFF7ADFE7A1991B2321BD0B2FFF79BFE50
:101BC000FFF7BBFE31480088FFF7A1FE7A1B91B2F8
:101BD000321BD0B2FFF78FFEFFF7AFFE2B48008815
:101BE000FFF795FE3A1991B27219D0B2FFF783FE52
:101BF000FFF7A3FE25480088FFF789FE3A1B91B244
:101C00007219D0B2FFF777FEFFF797FE1F480088E2
:101C1000FFF77DFE3A1991B2721BD0B2FFF76BFE4F
:101C2000FFF78BFE19480088FFF771FE3A1B91B24F
:101C3000721BD0B2FFF75FFEFFF77FFE13480088EC
:101C4000FFF765FEB9F1000F04DA062000EB84000F
:101C5000814405E0601B0A2101EB800081446D1E78
:101C6000641CAC428ED9BDE8F08370B506460024F2
:101C7000002540F23F110020FFF73DFEFFF75DFE1B
:101C800000BF2CE0000C01402C00002028000020A8
:101C90002A000020001001404439000820202020A4
:101CA0002020202020202020202020202020202034
:101CB0000000000000250FE056F824000121A94093
:101CC000084020B95F480088FFF721FE03E05E4826
:101CD0000088FFF71CFE6D1C202DEDD3641CB4F5AD
:101CE000166FE7D370BD70B50446002500266688E0
:101CF000A08846EA00466589A08945EA0045701B30
:101D000046082C4441F208010320FFF7B2FBFFF71D
:101D100014FE002504E02088FFF7F9FDA41C6D1CCB
:101D2000B542F8D341F218010320FFF7A2FB70BDC2
:101D300010B54FF40070454908604010086020203D
:101D4000091F086022204249C86020203F490860DE
:101D5000091F0860C0000860FFF748FD4FF480606D
:101D60003A4908603A48806884B20815091F08603B
:101D7000FFF72CFD4FF400703449091F086020461E
:101D800010BD00B500211020FFF773FB00211120CA
:101D9000FFF76FFB00211220FFF76BFB00211320E0
:101DA000FFF767FB1420FFF755FB41F2B0711020DD
:101DB000FFF75FFB40F237111120FFF75AFB0520B8
:101DC000FFF748FB40F239111220FFF752FB0520C4
:101DD000FFF740FB4FF4E8511320FFF74AFB1321B4
:101DE0002920FFF746FB0520FFF734FB40F2731173
:101DF0000720FFF73EFB00BD00B540F2731107203E
:101E0000FFF737FB00BD00B500210720FFF731FBCE
:101E100000BD30B5054600210846FFF76CFDFFF711
:101E20008CFD002409E015F814206100491C695C50
:101E300042EA0120FFF76BFD641CB4F5963FF2DB2C
:101E400030BD00002A00002028000020140C0140B2
:101E50000010014010B5FE480078012804D101218E
:101E6000000200F0FCFC04E000214FF4807000F060
:101E7000F6FCF8480078012804D10121400200F066
:101E8000EEFC04E000214FF4007000F0E8FCF248A2
:101E90000078012804D10121800200F0E0FC04E078
:101EA00000214FF4806000F0DAFC10BD10B5EB4962
:101EB0000868EB49096800F023FF0CD2E74948683D
:101EC000E749096800F012FF05D20120E0490870D7
:101ED0000020E4490860E1490868E349096800F026
:101EE0000FFF09D2DD494868DF49096800F0FEFEAE
:101EF00002D20020D649087010BD2DE9FC47DB480E
:101F0000007800287DD0DA499020FFF771FDD8498C
:101F10008978A1F1300000F079FE8046D54AD64B91
:101F200000F0FDFD04460D46D1490978A1F13000CD
:101F300000F06CFE064622462B4600F049FDCDE936
:101F4000000100F0B7FECD490860C9498979A1F1C7
:101F5000300000F05BFE0646C64AC74B00F0DFFDCE
:101F600004460D46C2490979A1F1300000F04EFE49
:101F7000804622462B4600F02BFDCDE9000100F003
:101F800099FEBF49086008460168BC48006800F037
:101F9000DBFC05464FF07E5100F0D6FC04460021E4
:101FA00000F0AEFE36D20021B448006800F0A8FE72
:101FB0002CD2B248006800F03AFE04464FF0663278
:101FC000B04B00F047FE21D20021AD48006800F080
:101FD00097FE17D2AA48006800F029FE04464FF089
:101FE0006632A84B00F036FE0CD2A44800689E4929
:101FF0000860A34800689A49086000209649087064
:102000000BE01DE001209449087006E00120924990
:10201000087002E00120904908704FF0000A05E0C6
:102020000020934901F80A000AF1010ABAF1640F8D
:10203000F6DB012240F225519348FFF7E2F800BF9A
:10204000BDE8FC8710B5914800680A2190FBF1F2C9
:1020500001FB120038B9814800688049486000F0EF
:10206000A7FA7E49086010BD70B589A10020FFF76E
:10207000BFFC00F09DFA064600F0D9FD044622465A
:102080000B4686A1894800F0EBFF804800683221AA
:1020900090FBF1F201FB1200282803DD8349302078
:1020A000FFF7A6FC6F4882A10268804800F0D8FFC5
:1020B0007E494820FFF79CFCFFF7C4FF70BD70B558
:1020C0007FA10020FFF794FC6748006800F0AFFD97
:1020D000044622460B467DA1744800F0C1FF7349B7
:1020E0003020FFF785FC5E48006800F0A0FD044644
:1020F00022460B4679A16D4800F0B2FF6B4948209B
:10210000FFF776FC70BD7949086000BF7749096820
:102110000029FBD17047764800684FF47A72B0FB13
:10212000F2F1481EB0F1807F00D31BE0481E4FF053
:10213000E022506150170F22002807DA13071D0E06
:102140006C4B00F00F04241F1D5503E013071C0EF9
:10215000694B1C5400BF00204FF0E0229061072023
:10216000106100BFC820FFF7CEFF00F04AFA00F070
:1021700095FA00F0E7FA00F057FBFFF797FB002015
:10218000FFF75CFC0020FFF7B0FB4FF6FF70FFF796
:10219000A6FB00214FF47F4000F061FB00F008FA3D
:1021A0002E49086000F004FA2C4948600DE05348BD
:1021B000007810B1FFF783FF01E0FFF755FFFFF74D
:1021C0009CFEFFF773FEFFF745FEF0E770B50120B8
:1021D000FEF722FF002839D04FF6FF70484908600B
:1021E00000BF474801680068401E454A106000294A
:1021F000F7D14248007838B91B4800684149086067
:1022000017480068404908603C48007808B9012038
:1022100000E00020394908700846007810B9012014
:102220003A49087039480078012810D10C480168F3
:102230000D48006800F088FB05464FF07E5100F025
:1022400083FB0446002100F05BFD61E0B0E0ACE000
:10225000570000205500002056000020CC00002030
:102260003C000020600000203800002065000020B5
:10227000DC0000209A9999999999B93F4000002073
:102280004400002066660A40004400405C000020D4
:1022900020202020202044617461000020563A252F
:1022A0002E326656202020202020000068000020CA
:1022B00020543A25647320202020202000000000B4
:1022C00020202020202050617261000020566D6186
:1022D000783A252E316656202000000020566D6980
:1022E0006E3A252E31665620200000003000002076
:1022F0000000002018ED00E000E400E034000020C1
:1023000050000020480000204C0000205800002011
:102310003DD200216B48006800F0F2FC2BD26948E6
:10232000006800F084FC04464FF06632664B00F013
:1023300091FC20D200216548006800F0E1FC0ED23B
:102340006248006800F073FC04464FF066325E4B52
:1023500000F080FC03D200205D49087022E05D4857
:102360000068584908605C480068584908600120C6
:102370005749087016E057480068524908605648A7
:102380000068524908600120514908700AE051482C
:1023900000684C490860504800684C4908600120BA
:1023A0004B49087000204D4908700120FEF745FE9A
:1023B00070BD2DE9F0414FF48070FEF72DFE80B323
:1023C0004FF6FF704649086000BF45480168006845
:1023D000401E434A10600029F7D142480078012886
:1023E0000DD13848006800F022FC06463E4A3F4BBB
:1023F00000F0EEFA044600F05DFC32490860314816
:10240000006800F014FC04464FF066322E4B00F0DA
:1024100039FC02D200202B4908604FF48070FEF78F
:102420000CFEBDE8F0812DE9F0410220FEF7F4FD3D
:1024300078B34FF6FF702A49086000BF284801684A
:102440000068401E264A10600029F7D12548007810
:1024500001280DD11D48006800F0E9FB0646224A1C
:10246000224B00F0B5FA044600F024FC174908603E
:102470001648006800F0DBFB04464FF06632124B52
:1024800000F000FC02D20020104908600220FEF794
:10249000D4FDBDE8F08110B50420FEF7BDFD78B194
:1024A0004FF6FF700E49086000BF0D4801680068D4
:1024B000401E0B4A10600029F7D10420FEF7BDFD35
:1024C00010BD00003800002066660A403C00002075
:1024D00055000020480000204C000020580000203B
:1024E00050000020340000209A9999999999B93F99
:1024F00010B540F225512648FEF768FFD8B12448B0
:10250000FEF7E4FEC1B2234802780078401C214B5C
:102510001870214881541846007807280BD10020F4
:102520001946087001201D490870002240F225510B
:102530001748FEF766FE10BD19480068401C184990
:102540000860084600684FF47A7190FBF1F201FBD5
:10255000120050B91348007820B113480068401C9D
:102560001149086000200E49086010480068401EAC
:102570000E4908607047704700BFFEE700BFFEE7E6
:1025800000BFFEE700BFFEE77047704770470000DE
:102590000044004064000020DC00002065000020B2
:1025A0005C00002057000020600000203000002068
:1025B0002DE9F04701213548FEF725FB00BF022138
:1025C0003248FEF791FC0028F9D000212F48FEF791
:1025D0001AFB2E48FEF7AAFB824600F012FB81464A
:1025E0002B4900F0B7F9044600F021FB07464FF0F5
:1025F0006632284B00F093FA054600F05BFBBDE81D
:10260000F08700B587B001214FF40270FEF796F90C
:102610000120ADF8040000208DF8070001A91E4834
:10262000FDF7D0FE002002908DF80C008DF80D0013
:102630004FF4602004900020059001208DF81800D0
:1026400002A91248FEF773FA0723012208210F4856
:10265000FEF705FB01210D48FEF795FA0B48FEF742
:10266000B4FA00BF0948FEF7B5FA0028FAD10748C6
:10267000FEF7BAFA00BF0548FEF7BBFA0028FAD108
:1026800001210248FEF7BFFA07B000BD0024014057
:1026900000F07F4566660A40000C014000B587B037
:1026A00001210520FEF74AF901214804FEF753F9FC
:1026B0000820ADF8080004208DF80B0002A91F487F
:1026C000FDF780FE0420ADF8080003208DF80A0015
:1026D00018208DF80B0002A91848FDF773FE4FF47F
:1026E000E060FEF78FF926208DF8040000208DF8B9
:1026F000060001208DF8070001A8FEF788F94FF4C5
:10270000165003900020ADF81000ADF81200ADF89F
:102710001400ADF818000C20ADF8160003A9084805
:10272000FEF7D7FC012240F225510548FEF769FD6E
:1027300001210348FEF759FD07B000BD0008014024
:10274000004400401FB501210C20FEF7F7F840F2CD
:102750000110ADF8040004208DF8070001A93048ED
:10276000FDF730FE0620ADF8040004208DF80700C8
:1027700001A92C48FDF726FE01210846FEF7DEF8E8
:1027800000210846FDF734FF0120029000208DF85B
:102790000C0008208DF80D0001208DF80E0002A815
:1027A000FEF7D4FB06208DF800000F208DF8010005
:1027B0008DF8020001208DF803006846FEF727F926
:1027C00008210020FDF714FF4FF48070029002A84A
:1027D000FEF7BCFB17208DF800006846FEF717F9DE
:1027E00001210846FDF704FF0220029002A8FEF72F
:1027F000ADFB07208DF800006846FEF708F90221BE
:102800000120FDF7F5FE0420029002A8FEF79EFBD2
:1028100008208DF800006846FEF7F9F81FBD00009B
:1028200000080140000C014008B501213020FEF7EE
:1028300085F84FF47F40ADF8000003208DF80200CA
:1028400010208DF8030069461448FDF7BBFD0420F5
:10285000ADF8000069461248FDF7B4FD08BD70B53B
:1028600004460D4665B121460C48FDF75AFE042189
:102870000B48FDF754FE04210948FDF752FE0BE01A
:1028800021460648FDF74BFE04210548FDF747FEAB
:1028900004210348FDF745FE70BD00000010014013
:1028A00000140140F0B480EA0102D40F4200B2EB00
:1028B000410F02D20246084611464A0042D0C30DDB
:1028C000DDB2C1F3C752AD1A202D35DAC1F31601BE
:1028D00041F4000204B15242C5F1200602FA06F1A9
:1028E0002A411044B3EBD05F23D0C4B1012DA0EB3B
:1028F000C35009DCF0BC4FF0004202EAC352DBB225
:1029000000F5000000F077BA400000F1807000EBA5
:10291000C350A0F1807040EAD170490009E0490835
:1029200041EAC071A0EBC35000F50000400800EB85
:10293000C350F0BC00F056BA6142012202EB4101E3
:10294000001BF6E7F0BC704781F00041AAE780F079
:102950000040A7E730B480EA010202F0004530F001
:10296000004221F0004013D090B1C30DD40DC2F34A
:102970001601C0F31600E41A41F4000140F400020D
:102980007D34914201D3641C00E04900002C02DA3E
:1029900030BC002070474FF400000023914201D367
:1029A000891A034340084FEA4101F7D151B19142DE
:1029B00002D14FF0004105E002D24FF0010101E0E9
:1029C0006FF0010103EBC450284430BC00F00ABA98
:1029D0002DE9FE4F804681EA0300C00F0C460090AF
:1029E00021F0004123F00045B8EB0200A94105D2D7
:1029F0004046214690461C460B46024623F00040C6
:102A0000104347D0270DC7F30A00C3F30A510290C1
:102A1000401A019040286BDAC3F3130040F4801B86
:102A20000098924620B10023D2EB030A63EB0B0B14
:102A300001985946C0F14002504600F0B2F90646EE
:102A40000D4650465946019A00F0BAF910EB0800BD
:102A50006141002487EA115284EAE7731A4340D0A7
:102A6000009A62B3019A012A4FEA075215DC001B53
:102A700061EB02014FF0004202EA0752CDE9004249
:102A8000001C41F5801132462B4600F0F1F903B0ED
:102A9000BDE8F08F40462146F9E7001B61EB0201DB
:102AA000001C41F5801300185B412018A2F50017A7
:102AB00047EB030140EAD570B6196D4111E06D088E
:102AC0004FEA360645EAC0754FEA0752001B61EB34
:102AD0000201001C41F5801149084FEA300000193D
:102AE000514132462B4603B0BDE8F04F00F0B1B97A
:102AF0000098012240000023D0EB020263EBE07358
:102B0000009821464FEAE074B8EB000061EB040145
:102B1000E9E783F000435BE781F0004158E72DE9E6
:102B2000FE4F81EA030404F0004421F000410094C8
:102B30004FF0000B23F0004350EA01045ED052EA4C
:102B400003045BD0C3F30A54C1F30A552C44A4F226
:102B5000F3340194A0FB0254C1F3130141F480113A
:102B6000C3F3130343F4801301FB024400FB034E41
:102B7000840A970A44EA815447EA8357A4FB07680A
:102B800002958D0A05FB07854FEA932C04FB0C5434
:102B90002705029D4FEA065847EA1637B5EB0805A8
:102BA0006EEB070C870E920E47EA811742EA8312FA
:102BB000A7FB0201B6EB0B0164EB00042B0D43EA0B
:102BC0000C335E1844EB1C50DA465146E7FB020119
:102BD000C5F313044FEA0B3343EA14534FEA0432AC
:102BE000019C43EA0603A4F10C040294009CCDE985
:102BF00000B400F03DF903B0BDE8F08F00200146BD
:102C0000F9E796230022114600F0F5B80EB5C10F82
:102C100080EAE0700844CA07002140F233438DE89F
:102C20000E000A460B4600F023F903B000BD00F089
:102C3000004230F000400AD0C10D01F56071C0F3D0
:102C4000160042EA0151C2084007114370470020B4
:102C50000146704730B5041E71F1000404DB4FF0EB
:102C60000044404264EB0101141E73F1000405DBD3
:102C70001C464FF00043524263EB04038B4208BFF3
:102C8000824230BD30B5041E71F1000404DB4FF008
:102C90000044404264EB0101141E73F1000405DBA3
:102CA0001C464FF00043524263EB0403994208BFB5
:102CB000904230BD01F0004330B421F0004150EAB1
:102CC000010206D00A0DA2F56072C1F31301002AB9
:102CD00002DC30BC00207047440F44EAC104C1004C
:102CE000E01830BC00EBC25000F07CB8002801DBDB
:102CF000C0F10040002901DBC1F100418142704771
:102D0000002801DBC0F10040002901DBC1F10041D6
:102D10008842704730B50B4601460020202201242E
:102D200009E021FA02F59D4205D303FA02F5491B99
:102D300004FA02F52844151EA2F10102F1DC30BDAF
:102D40002DE9F05F0546002092469B4688460646E0
:102D5000814640241BE0284641464746224600F073
:102D60006FF953465A46C01A914110D3114618467E
:102D7000224600F016F82D1A67EB01084F4622464E
:102D80000120002100F00DF817EB00094E41201E34
:102D9000A4F10104DFDC484631462A464346BDE83B
:102DA000F09F202A04DB203A00FA02F1002070474D
:102DB0009140C2F1200320FA03F319439040704779
:102DC000202A06DBCB17203A41FA02F043EAE073EF
:102DD00006E041FA02F3D040C2F1200291400843DC
:102DE000194670470029A8BF7047401C490008BF1A
:102DF00020F00100704710B4B0FA80FC00FA0CF02B
:102E000050EA010404BF10BC704749B1CCF1200462
:102E100021FA04F411FA0CF118BF012121430843EF
:102E2000A3EB0C01CB1D4FEA00614FEA102042BF1B
:102E3000002010BC704700EBC35010440029A4BF11
:102E400010BC7047401C490008BF20F0010010BCB6
:102E5000704710B5141E73F1000408DA401C41F1EC
:102E6000000192185B411A4301D120F0010010BD0E
:102E70002DE9F04D92469B4611B1B1FA81F202E084
:102E8000B0FA80F220329046FFF78BFF04460F46DF
:102E900040EA0A0041EA0B0153465A46084313D060
:102EA000114653EA010019D0C8F14002504600F023
:102EB000C7F805460E46504659464246FFF771FF91
:102EC000084305D0012004E020463946BDE8F08DD6
:102ED0000020054346EAE0762C4337430A98630511
:102EE000E40AA0EB08000022FD0A44EA47540A3035
:102EF00002D500200146E9E7010510196941DDE925
:102F0000084500196941BDE8F04DA2E72DE9F04DF3
:102F100081EA030404F0004B21F0004514464FF011
:102F2000000A23F0004150EA050220D054EA0102D1
:102F30001DD0C5F30A570246C5F31303C1F31300AE
:102F4000C1F30A5640F4801543F48013A7EB06083A
:102F5000101BD64608F2FD3873EB050002D308F1CA
:102F6000010801E092185B41B8F1000F03DA00207C
:102F70000146BDE8F08D00204FF4801106468446DE
:102F80000EE0171B73EB050705D3121B63EB05035C
:102F900006434CEA010C49084FEA300092185B41A5
:102FA00050EA0107EDD152EA030012D082EA040090
:102FB00083EA0501084305D0101BAB4106D201226C
:102FC000002306E000224FF0004302E06FF0010210
:102FD00053101AEB06004CEB085110EB0A0041EBC2
:102FE0000B01BDE8F04DFFF734BFC1F30A52C1F346
:102FF000130140F2FF3341F480119A4202DA0020BB
:103000000146704740F233439A42A2F2334202DC57
:10301000524200F015B8FFF7C4BE0000064C074D41
:1030200006E0E06840F0010394E807009847103498
:10303000AC42F6D3FDF75EF8144B0008344B0008A1
:10304000202A04DB203A21FA02F00021704721FAFD
:1030500002F3D040C2F12002914008431946704764
:103060000FB4084B10B504A902AA039800F0CEF8DB
:10307000044602A9002000F060FC204610BC5DF868
:1030800014FB00003B39000802E008C8121F08C109
:10309000002AFAD170477047002001E001C1121FD9
:1030A000002AFBD1704700002DE9FF5FDDE9022017
:1030B000010DDDF838B0024318D044F61050A1F2EB
:1030C000FF3141430D140F98012820D0A5EB0B00D0
:1030D000401C5FEA000A4FF00004474EDFF81C91E5
:1030E000A046504616D5CAF1000728E00F980124E3
:1030F00043A2012808D0002100980F9BC0E90021BD
:10310000C0E90243BDE8FF9F6FEA0B01F4E7CBF192
:103110000000DEE7074612E0F80707D022463346F4
:1031200040464946FFF7FBFC804689462246334627
:1031300010461946FFF7F3FC04460E467F10002F99
:10314000EAD1DDE90201BAF1000F42464B4602DA4C
:10315000FFF7E5FC01E0FFF7D9FE04460E4600222A
:10316000284BFFF78FFD03D84FF0FF30014607E0F3
:103170000022254B20463146FFF72AFCFFF735FF9A
:10318000102409E0002C0ADB0A220023FFF7D8FDF7
:10319000019B30321A55641E50EA0102F2D1641CC0
:1031A000019AC4F1110314440F9A012A03D0012299
:1031B00008430DD10AE0084304D000204FF0110B62
:1031C0000F9080E7A3EB0B056D1E0DE05B4504DD62
:1031D0004FF0000205F1010504E003DA4FF00002B0
:1031E000A5F10105002AECD000980F99C0E9023141
:1031F000C0E9004586E70000000024400000F03FE1
:10320000300000000000F0430000E03F2DE9FF4FD8
:1032100095B09B468946064600250FE2252877D1C2
:1032200000242746F84A0121059400E0044316F8DB
:10323000013F203B01FA03F01042F7D130782A28F1
:1032400011D06FF02F033078A0F13002092A16D880
:10325000059A44F0020402EB820203EB420210449E
:10326000761C0590EFE759F8042B0592002A03DA43
:10327000504244F40054059044F00204761C307827
:103280002E2816D116F8010F44F004042A280DD078
:103290006FF02F023078A0F13003092B09D807EB2B
:1032A000870302EB4303C718761CF3E759F8047B46
:1032B000761C30786C280FD006DC4C2817D0682894
:1032C0000DD06A2814D104E0742810D07A280FD1C8
:1032D0000DE044F400140AE044F4801401E044F4E6
:1032E00040147278824202D104F58014761C761C58
:1032F000307866280BD013DC582877D009DC0028FA
:1033000075D04528F6D04628F4D047281AD19DE13B
:1033100018E0632835D0642879D0652812D195E16A
:10332000702873D008DC6728F1D069286FD06E2828
:103330000DD06F2806D1B5E073282CD0752875D034
:10334000782874D05A46179990476D1C75E1C4F3DC
:103350000250022809D003280DD0D9F80010042803
:103360000DD00D6009F1040967E1D9F80010EA17E2
:10337000C1E90052F6E7D9F800100D80F2E70D70B0
:10338000F0E719F8041B8DF8001000208DF80100FB
:10339000EA46012003E059F804AB4FF0FF30610723
:1033A0004FF0000102D40DE008F101018846B94256
:1033B0000FDA8045F8DB1AF808100029F4D108E08C
:1033C00008F1010188468142FADB1AF80810002949
:1033D000F6D105985B46A0EB080721463846179AB8
:1033E00000F094FA284400EB080507E04DE029E1DD
:1033F0000DE01AF8010B5A4617999047B8F10108E9
:10340000F7D25B4621463846179A13E142E00A227A
:103410000092C4F302524FF0000A022A08D059F871
:1034200004CB032A4FEAEC710AD00DE029E02AE030
:1034300009F1070121F00702F2E802C1914609E013
:103440000FFA8CFC4FEAEC71042A03D14FFA8CFC82
:103450004FEAEC71002907DA0A460021DCF1000C82
:1034600061EB02012D2202E0220504D52B228DF80A
:103470000420012203E0E20701D02022F7E7904672
:1034800059E00A2102E010220DE010214FF0000A5D
:1034900000910BE010224FF0000A44F004040827CA
:1034A000009203E008224FF0000A0092C4F3025297
:1034B000022A05D059F804CB0021032A08D009E0DC
:1034C00009F1070121F00702F2E802C1914605E087
:1034D0001FFA8CFC042A01D10CF0FF0C4FF00008FD
:1034E000220728D5702806D0009B83F0100353EAEA
:1034F0000A0305D00EE040228DF80420012208E0E6
:103500005CEA010206D030228DF804208DF8050017
:1035100002229046009B83F0080353EA0A030AD173
:103520005CEA010201D1620705D530228DF8042042
:103530004FF001087F1E582804D034A003900EA835
:1035400002900DE036A0F9E753466046009AFFF777
:10355000F7FB84460398825C0298401E029002703A
:103560005CEA0100F0D1029806A9081A00F1200ACD
:10357000600702D524F4803400E00127574502DDBE
:10358000A7EB0A0000E0002000EB0A01009005987C
:103590004144401A0590E00306D45B462146179A41
:1035A000059800F0B3F90544002706E001A85A4643
:1035B000C05D179990476D1C7F1C4745F6DBE00303
:1035C0000CD55B462146179A059800F09FF90544F3
:1035D00004E030205A46179990476D1C0099481E08
:1035E00000900029F5DC08E0029802995A4600781C
:1035F000491C0291179990476D1CBAF10001AAF17C
:10360000010AF1DC65E100000928010030313233A4
:10361000343536373839616263646566000000000E
:1036200030313233343536373839414243444546F8
:103630000000000000F058F90544761C307800289E
:103640007FF4ECAD19B02846BDE8F08F620700D4D6
:10365000062709F1070222F0070CFCE80223E146E5
:1036600003F000485FEA080C02D00FF2702C0DE066
:103670005FEA045C02D50FF2682C07E05FEAC47CC5
:1036800002D00FF2602C01E0AFF2700C4FF0FF3867
:1036900023F00043CDF850C065280CD006DC452847
:1036A00009D046281DD047283DD13DE0662818D0D6
:1036B00067287ED138E00021112F01DB112000E0C6
:1036C000781CCDE9000106A90EA8FFF7EDFCDDE9A5
:1036D0000F010E9A03910021009207F1010A049153
:1036E0004DE04FF000400097CDE9011006A90EA86B
:1036F000FFF7DAFCDDE90F0203920E9B119900221D
:10370000DDF80CA00093049211B9791C00EB010ABA
:10371000B7EB0A0004D4C0F1FF3007F1010A0490AE
:10372000AAEB0700019044E0012F00DA01270021F5
:10373000112F01DD112000E03846CDE9000106A976
:103740000EA8FFF7B1FCDDE90F010E9A03910021ED
:1037500004910092BA4621070CD40399514500DA2E
:103760008A46BAF1010F05DD009AAAF10101515C08
:10377000302908D0B84202DA10F1040F06DA01212C
:10378000CDE9011015E0AAF10101E9E7002805DC07
:10379000049901440491AAEB000102E0411C514547
:1037A00000DD8A460499401A401C01904FF0004009
:1037B0000290200704D40198504501DBCDF8048025
:1037C00000208DF84F0002980DF14F07B0F1004F27
:1037D00025D02B200E9002984FF0020800280CDA1A
:1037E000404202902D200E9007E00A210298FFF738
:1037F00091FA3031029007F8011DB8F10001A8F1EB
:103800000108F2DC02980028EFD1791E0E980870AA
:10381000307800F0200040F0450007F8020D12A8B3
:10382000C01B00F107081498007800B1012000EBDC
:103830000A01019801EBE07105984144401A401ECD
:103840000590E00306D45B462146179A059800F0E0
:103850005DF805441498007818B15A4617999047B6
:103860006D1CE00324D55B462146179A059800F0AD
:103870004DF805441CE00498002807DBDDE903014E
:10388000884203DD0098405C179901E017993020C9
:103890005A469047049805F10105401C0490019890
:1038A000401E019004D12E205A46179990476D1C56
:1038B000BAF10001AAF1010ADDDC05E017F8010BFD
:1038C0005A46179990476D1CB8F10001A8F10108FC
:1038D000F4DC5B462146179A0598ABE62D00000004
:1038E0002B000000200000002DE9F04104460025D7
:1038F0001E461746880404D405E039462020B04708
:103900006D1C641EF9D52846BDE8F0812DE9F04113
:10391000044600251E469046C80301D5302700E026
:103920002027880404D505E041463846B0476D1C81
:10393000641EF9D52846BDE8F0810A68531C0B6067
:103940001070704700000000000000000000000040
:103950000000000000000000000000000000000067
:103960000000000000000000000000000000000057
:1039700000000000000080018001800180018001C2
:10398000800180018001800180018001800180012F
:103990000000000080018001000000000000000025
:1039A0000000000000000000CC00CC00CC00CC00E7
:1039B000CC00CC000000000000000000000000006F
:1039C00000000000000000000000000000000000F7
:1039D00000000000000000000000000000000000E7
:1039E000600C600C600C30063006FE1FFE1F3006B7
:1039F00038071803FE1FFE1F180318038C018C01E3
:103A00008C01000000008000E003F80F9C0E8C1C6D
:103A10008C188C009800F801E007800E801C8C1830
:103A20008C189C18B80CF00FE00380008000000098
:103A3000000000000000000000000E181B0C110C1C
:103A400011061106110311039B018E01C038C06CD1
:103A500060446044304430441844186C0C38000012
:103A6000000000000000E001F00338071806180607
:103A70003003F001F000F8009C310E33061E061CE6
:103A8000061C063FFC73F02100000000000000004F
:103A900000000000000000000C000C000C000C00F6
:103AA0000C000C00000000000000000000000000FE
:103AB0000000000000000000000000000000000006
:103AC000000000000000000200038001C000C000F0
:103AD0006000600030003000300030003000300006
:103AE0003000300060006000C000C00080010003B2
:103AF00000020000000020006000C0008001800182
:103B0000000300030006000600060006000600068B
:103B1000000600060003000380018001C000600071
:103B20002000000000000000000000000000000075
:103B3000C000C000D806F807E001300338070000D5
:103B40000000000000000000000000000000000075
:103B50000000000000000000000000000000000065
:103B600080018001800180018001FC3FFC3F8001D9
:103B70008001800180018001000000000000000041
:103B80000000000000000000000000000000000035
:103B90000000000000000000000000000000000025
:103BA0000000000000008001800100010001800091
:103BB0000000000000000000000000000000000005
:103BC000000000000000000000000000E007E00727
:103BD00000000000000000000000000000000000E5
:103BE00000000000000000000000000000000000D5
:103BF00000000000000000000000000000000000C5
:103C0000000000000000C000C00000000000000034
:103C1000000000000000000C000C0006000600067A
:103C20000003000300038003800180018001C000C5
:103C3000C000C00060006000000000000000000044
:103C4000000000000000E003F007380E180C0C180C
:103C50000C180C180C180C180C180C180C180C1844
:103C6000180C380EF007E003000000000000000010
:103C700000000000000000018001C001F001980177
:103C80008801800180018001800180018001800124
:103C90008001800180018001000000000000000020
:103CA000000000000000E003F80F180C0C180C18BE
:103CB00000180018000C000600038001C00060001E
:103CC00030001800FC1FFC1F000000000000000076
:103CD000000000000000E001F807180E0C0C0C0CAE
:103CE000000C0006C003C007000C001800180C18D8
:103CF0000C18180CF807E00300000000000000009A
:103D0000000000000000000C000E000F000F800DEE
:103D1000C00C600C600C300C180C0C0CFC3FFC3F11
:103D2000000C000C000C000C000000000000000063
:103D3000000000000000F80FF80F180018000C0039
:103D4000EC03FC071C0E001C0018001800180C18CF
:103D50001C0C180EF807E003000000000000000033
:103D6000000000000000C007F00F381C18181800F1
:103D70000C00CC03EC0F3C0E1C1C0C180C180C187F
:103D8000181C380EF007E0030000000000000000DF
:103D9000000000000000FC1FFC1F000C00060006D5
:103DA000000380038001C001C000E00060006000EB
:103DB0007000300030003000000000000000000003
:103DC000000000000000E003F007380E180C180C8B
:103DD000180C3806F007F007180C0C180C180C1803
:103DE0000C18380CF80FE003000000000000000081
:103DF000000000000000E003F007380E1C0C0C1857
:103E00000C180C181C1C381EF81BE0190018000CAC
:103E1000000C1C0EF807F00100000000000000007C
:103E20000000000000000000000000000000000092
:103E30008001800100000000000000000000000080
:103E40000000000080018001000000000000000070
:103E50000000000000000000000000000000000062
:103E60008001800100000000000000000000000050
:103E700000000000800180010001000180000000BE
:103E80000000000000000000000000000000000032
:103E9000000000000010001C800FE003F800180074
:103EA000F800E003800F001C00100000000000007C
:103EB0000000000000000000000000000000000002
:103EC00000000000F81F000000000000F81F0000C4
:103ED00000000000000000000000000000000000E2
:103EE00000000000000000000000000000000000D2
:103EF0000000000008003800F001C007001F001893
:103F0000001FC007F001380008000000000000009A
:103F1000000000000000E003F80F180C0C180C184B
:103F20000018000C000600038001C000C000C000A3
:103F300000000000C000C000000000000000000001
:103F40000000000000000000E00718180420C2294B
:103F5000224A114409440944094409221113E20C7C
:103F6000024004201818E0070000000000000000D4
:103F700000000000000080038003C006C006C006E9
:103F8000600C600C301830183018F83FF83F1C7087
:103F90000C600C6006C006C00000000000000000BD
:103FA000000000000000FC03FC0F0C0C0C180C18A7
:103FB0000C180C0CFC07FC0F0C180C300C300C30DF
:103FC0000C300C18FC1FFC07000000000000000073
:103FD000000000000000C007F01F38381C300C70D3
:103FE00006600600060006000600060006000660E1
:103FF0000C701C30F01FE007000000000000000003
:10400000000000000000FE03FE0F060E0618061852
:104010000630063006300630063006300630061808
:104020000618060EFE0FFE03000000000000000050
:10403000000000000000FC3FFC3F0C000C000C00E6
:104040000C000C00FC1FFC1F0C000C000C000C00F2
:104050000C000C00FC3FFC3F0000000000000000D2
:10406000000000000000F83FF83F1800180018009A
:1040700018001800F81FF81F180018001800180082
:1040800018001800180018000000000000000000D0
:10409000000000000000E00FF83F3C780E6006E0F2
:1040A00007C00300030003FE03FE03C007C006C0F1
:1040B0000EC03CF0F83FE00F0000000000000000E0
:1040C0000000000000000C300C300C300C300C30C4
:1040D0000C300C30FC3FFC3F0C300C300C300C3002
:1040E0000C300C300C300C300000000000000000E0
:1040F000000000000000800180018001800180013B
:1041000080018001800180018001800180018001A7
:10411000800180018001800100000000000000009B
:104120000000000000000006000600060006000671
:104130000006000600060006000600060006180637
:1041400018063807F003E00100000000000000003E
:1041500000000000000006300618060C06060603E4
:104160008601C60066007600DE008E0106030606A4
:10417000060C061806300660000000000000000073
:1041800000000000000018001800180018001800B7
:10419000180018001800180018001800180018005F
:1041A00018001800F81FF81F0000000000000000B1
:1041B0000000000000000EE01EF01EF01EF036D8D9
:1041C00036D836D836D866CC66CC66CCC6C6C6C617
:1041D000C6C6C6C686C386C3000000000000000035
:1041E0000000000000000C301C303C303C306C30D3
:1041F0006C30CC30CC308C310C330C330C360C366C
:104200000C3C0C3C0C380C3000000000000000009E
:10421000000000000000E007F81F1C380E70066068
:1042200003C003C003C003C003C003C003C00660D3
:104230000E701C38F81FE0070000000000000000AE
:10424000000000000000FC0FFC1F0C380C300C308C
:104250000C300C300C18FC1FFC070C000C000C0080
:104260000C000C000C000C0000000000000000001E
:10427000000000000000E007F81F1C380E70066008
:1042800003E003C003C003C003C003C007E006632C
:104290000E3F1C3CF83FE0F700C0000000000000AB
:1042A000000000000000FE0FFE1F0638063006303A
:1042B00006300638FE1FFE0706030606060C061823
:1042C00006180630063006600000000000000000FE
:1042D000000000000000E003F80F1C0C0C180C1884
:1042E0000C001C00F803E00F001E003806300630FA
:1042F0000E301C1CF80FE00700000000000000005A
:10430000000000000000FE7FFE7F80018001800130
:104310008001800180018001800180018001800195
:104320008001800180018001000000000000000089
:104330000000000000000C300C300C300C300C3051
:104340000C300C300C300C300C300C300C300C308D
:104350000C301818F81FE0070000000000000000F3
:1043600000000000000003600630063006300C1824
:104370000C180C18180C180C380E30063006700784
:1043800060036003C001C0010000000000000000E5
:104390000000000000000360C361C361C3616633B5
:1043A000663366336633663366336C1B6C1B6C1B7B
:1043B0002C1A3C1E380E380E0000000000000000D1
:1043C0000000000000000FE00C7018303018700C76
:1043D000600EC00780038003C003E006700C301C31
:1043E00018180C300E6007E000000000000000000C
:1043F00000000000000003C006600C301C383818B4
:10440000300C6006E007C00380018001800180015C
:104410008001800180018001000000000000000098
:10442000000000000000FC7FFC7F006000300018EE
:10443000000C000600038001C0006000300018007E
:104440000C000600FE7FFE7F000000000000000060
:10445000000000000000E003E00360006000600076
:10446000600060006000600060006000600060004C
:104470006000600060006000600060006000E003B9
:10448000E0030000000030003000600060006000C9
:10449000C000C000C000C001800180018001000395
:1044A00000030003000600060000000000000000FA
:1044B000000000000000E003E0030003000300032D
:1044C00000030003000300030003000300030003D4
:1044D0000003000300030003000300030003E003E4
:1044E000E003000000000000C001C00160036003A1
:1044F000600330063006180C180C000000000000A5
:1045000000000000000000000000000000000000AB
:10451000000000000000000000000000000000009B
:10452000000000000000000000000000000000008B
:10453000000000000000FFFFFFFF0000000000007F
:104540000000000000000C000C000C000C000C002F
:104550000C0000000000000000000000000000004F
:10456000000000000000000000000000000000004B
:10457000000000000000000000000000000000003B
:10458000F003F8071C0C0C0C000FF00FF80C0C0CCF
:104590000C0C1C0FF80FF0180000000000000000C9
:1045A0000000000000001800180018001800180093
:1045B000D803F80F380C18181818181818181818E5
:1045C0001818380CF80FD803000000000000000095
:1045D00000000000000000000000000000000000DB
:1045E000C003F007300E180C18001800180018004F
:1045F000180C300EF007C00300000000000000009F
:104600000000000000000018001800180018001832
:10461000C01BF01F301C1818181818181818181874
:104620001818301CF01FC01B000000000000000024
:10463000000000000000000000000000000000007A
:10464000C003F00F300C1818F81FF81F18001800DE
:104650003818301CF00FC0070000000000000000F8
:10466000000000000000800FC00FC000C000C000AC
:10467000F007F007C000C000C000C000C000C000CC
:10468000C000C000C000C00000000000000000002A
:10469000000000000000000000000000000000001A
:1046A000E00DF80F180E0C0C0C0C0C0C0C0C0C0C78
:1046B0000C0C180EF80FE00D000C0C0C1C06F80783
:1046C000F001000000001800180018001800180081
:1046D000D807F80F381C18181818181818181818B0
:1046E000181818181818181800000000000000000A
:1046F000000000000000C000C0000000000000003A
:10470000C000C000C000C000C000C000C000C000A9
:10471000C000C000C000C000000000000000000099
:10472000000000000000C000C00000000000000009
:10473000C000C000C000C000C000C000C000C00079
:10474000C000C000C000C000C000C000C000F80031
:104750007800000000000C000C000C000C000C00A5
:104760000C0C0C060C038C01CC006C00FC009C01B2
:104770008C030C030C060C0C000000000000000071
:10478000000000000000C000C000C000C000C00069
:10479000C000C000C000C000C000C000C000C00019
:1047A000C000C000C000C000000000000000000009
:1047B00000000000000000000000000000000000F9
:1047C0007C3CFF7EC7E383C183C183C183C183C1B6
:1047D00083C183C183C183C10000000000000000C9
:1047E00000000000000000000000000000000000C9
:1047F0009807F80F381C18181818181818181818CF
:1048000018181818181818180000000000000000E8
:104810000000000000000000000000000000000098
:10482000C003F00F300C181818181818181818189A
:104830001818300CF00FC00300000000000000004A
:104840000000000000000000000000000000000068
:10485000D803F80F380C1818181818181818181842
:104860001818380CF80FD803180018001800180092
:104870001800000000000000000000000000000020
:10488000C01BF01F301C1818181818181818181802
:104890001818301CF01FC01B001800180018001852
:1048A00000180000000000000000000000000000F0
:1048B000B007F003700030003000300030003000EE
:1048C0003000300030003000000000000000000028
:1048D00000000000000000000000000000000000D8
:1048E000E003F003380E180C3800F003C007000C8A
:1048F000180C380EF007E003000000000000000074
:1049000000000000000000008000C000C000C000E7
:10491000F007F007C000C000C000C000C000C00029
:10492000C000C000C00780070000000000000000B9
:104930000000000000000000000000000000000077
:1049400018181818181818181818181818181818E7
:104950001818381CF01FE0190000000000000000CB
:104960000000000000000000000000000000000047
:104970000C18180C180C180C3006300630066003A2
:1049800060036003C001C0010000000000000000DF
:104990000000000000000000000000000000000017
:1049A000C141C141C36163636363636336363636B5
:1049B00036361C1C1C1C1C1C0000000000000000E3
:1049C00000000000000000000000000000000000E7
:1049D0001C38381C300C6006600360036003600301
:1049E0006006300C381C1C3800000000000000007D
:1049F00000000000000000000000000000000000B7
:104A00001830301830187018600C600CE00CC006BC
:104A1000C00680038003800380018001C001F00094
:104A20007000000000000000000000000000000016
:104A3000FC1FFC1F000C000600038001C00060008A
:104A400030001800FC1FFC1F0000000000000000E8
:104A500000000000000000038001C000C000C00092
:104A6000C000C000C0006000600030006000400076
:104A7000C000C000C000C000C000C0008001000332
:104A800000000000000080018001800180018001A1
:104A9000800180018001800180018001800180010E
:104AA00080018001800180018001800180018001FE
:104AB0008001000000006000C000C0018001800192
:104AC0008001800180010003000300060003000153
:104AD000800180018001800180018001C0006000B0
:104AE00000000000000000000000000000000000C6
:104AF00000000000F010F81F080F00000000000088
:104B000000000000000000000000000000000000A5
:104B100000000000344B0008000000206800000086
:104B2000883000089C4B000868000020D804000072
:104B30009830000800A24A040000000000000000B5
:104B40000102030406070809000000000102030433
:104B50000102030406070809020406080000FFFF1B
:104B600000000000000000000000000000004040C5
:104B70000000803F00000000000000000000000076
:104B80000000000000000000000000000000000025
:0C4B900000000000000000000000000019
:04000005080000ED02
:00000001FF
